S01700004763634170706C69636174696F6E312E737265635B
S11300000C945D010C947A010C947A010C947A019D
S11300100C947A010C947A010C947A010C947A0170
S11300200C947A010C947A010C947A010C947A0160
S11300300C947A010C947A010C947A010C947A0150
S11300400C947A010C947A010C947A010C947A0140
S11300500C947A010C947A010C947A010C947A0130
S11300600C947A010C947A010C947A010C947A0120
S11300700C947A010C947A010C947A01F808E10941
S1130080E109E109E109E109E109F308E109E1090B
S1130090E109E109E109EE08EE08EE08EE08EE08D0
S11300A0EE08EE08EE08EE08EE08E109E109E109C0
S11300B0E109E109E109E109360922092B094009AD
S11300C005A84CCDB2D44EB93836A9020C50B9911A
S11300D08688083CA6AAAA2ABE000000803F080021
S11300E00000BE922449123EABAAAA2ABECDCCCCB3
S11300F04C3E00000080BEABAAAAAA3E000000004D
S1130100BF000000803F0000000000084178D3BB1E
S11301104387D1133D190E3CC3BD4282AD2B3E68CB
S1130120EC8276BED98FE1A93E4C80EFFFBE01C4BC
S1130130FF7F3F00000000000664EC1B3C04BC167B
S11301403E3BE5B93CC93C37C29E5A3D660498081B
S11301503EEA69AAAA3E000000803F07634236B720
S11301609BD8A71A39685618AEBAAB558C1D3CB744
S1130170CC5763BD6DEDFD753EF6177231BF0000BF
S113018000803F004E414E494E495459494E46CD98
S1130190CCCC3D0AD7233C17B7D13877CC2B32953A
S11301A095E6241FB14F0A000020410000C8420018
S11301B0401C4620BCBE4CCA1B0E5AAEC59D7400E2
S11301C0407A10F35A00A0724E18090010A5D4E822
S11301D00000E87648170000E40B54020000CA9AB5
S11301E03B000000E1F50500008096980000004007
S11301F0420F000000A0860100000010270000004C
S113020000E803000000006400000000000A000091
S11302100000000100000000002C76D888DC674F45
S11302200823DFC1DFAE59E1B1B796E5E3E453C675
S11302303AE651997696E8E6C28426EB898C9B626D
S1130240ED407C6FFCEFBC9C9F40F2BAA56FA5F417
S113025090055A2AF75C936B6CF9676DC11BFCE03F
S1130260E40D47FEF520E6B500D0ED902E03009492
S11302703577050080841E080000204E0A00000027
S1130280C80C333333330F986E12831141EF8D2131
S113029014893BE65516CFFEE6DB18D1844B381B98
S11302A0F77C1D901DA4BBE424203284725E22815D
S11302B000C9F124ECA1E53D270011241FBECFEFB6
S11302C0D8E0DEBFCDBF12E0A0E0B1E0E2E1F3E3AD
S11302D002C005900D92AE3CB107D9F724E0AEEC14
S11302E0B2E001C01D92A53FB207E1F70E94280DBC
S11302F00C9487190C94000080EF84B98FEF85B9B2
S11303000895CF93DF9300D000D01F92CDB7DEB70E
S113031049835A836B837C838D83A091B103AF316E
S1130320B4F4AF5FA093B1030A2E000CBB0BCD0154
S1130330880F991F880F991FA80FB91FAE54BC4F7F
S113034085E0FE01319601900D928A95E1F70F90B8
S11303500F900F900F900F90DF91CF910895CF934E
S1130360DF9300D000D01F92CDB7DEB7E091B10388
S11303708FEF8E0F8093B1030E2E000CFF0BCF0175
S1130380880F991F880F991FE80FF91FEE54FC4F2F
S113039085E0DE01119601900D928A95E1F729819D
S11303A03A814B815C816D8170E080E090E00F9038
S11303B00F900F900F900F90DF91CF910895CF93EE
S11303C0DF9300D000D01F92CDB7DEB7E091B10328
S11303D00E2E000CFF0BCF01880F991F880F991F59
S11303E0E80FF91FEE54FC4F85E0DE0111960190F1
S11303F00D928A95E1F729813A814B815C816D8167
S113040070E080E090E00F900F900F900F900F90AD
S1130410DF91CF9108958091B103881F8827881FA9
S11304200895E0913003EF316CF4EF5FE093300313
S113043024E0E202F0011124EF5CFC4F608371833D
S1130440828393830895E09130038FEF8E0F80931E
S1130450300384E0E802F0011124EF5CFC4F60817A
S113046071818281938108958B3251F08D3251F0E4
S11304708A3251F08F3251F08E3551F483E0089571
S113048081E0089581E0089582E0089582E008956E
S113049080E0089588B1846088B982E08A95F1F794
S11304A000C088B18B7F88B985E88A95F1F7000090
S11304B00895662321F098B1916098B903C098B16A
S11304C09E7F98B998B19D7F98B982B90E944A02DB
S11304D0089560E00E94590208958EE00E94690226
S11304E008958CE00E9469020895882311F080EC3D
S11304F001C080E8862B0E946902089561E00E9491
S113050059020895CF93DF93EC0103C021960E9412
S11305107E0288818111FACFDF91CF9108950F93E4
S11305201F93CF93DF93C62F8A010E947502D0E1F7
S1130530DC1BC0E003C00E947E02CF5FF801EC0F19
S1130540F11D8081882339F0CD17A8F304C080E21F
S11305500E947E02CF5FCD17D0F3DF91CF911F9120
S11305600F91089580912E03811103C046E051E05C
S113057002C048E151E060E080E00E948F02809177
S11305802E03813019F44AE251E002C04CE351E0F9
S113059060E081E00E948F0208958133E1F08434A9
S11305A021F490912E039923C1F08233C1F0843455
S11305B021F490912E039130A1F08254823098F46A
S11305C081E090912E03911180E080932E030E948C
S11305D0B20280E0089581E0089581E0089583E007
S11305E0089583E0089580E008958FEF81B987B17D
S11305F0876087B988B1887F88B92FE788E391E05D
S1130600215080409040E1F700C0000088E30E9440
S113061069028FE097E20197F1F700C0000088E3D8
S11306200E9469028BE291E00197F1F700C000009B
S113063088E30E9469028CE00E94690286E00E94BD
S1130640690281E00E9469028FE99FE00197F1F756
S113065000C00000089581E00E9469028FE99FE0D4
S11306600197F1F700C0000008950E942B030E9437
S1130670710210922E0346E051E060E080E00E9497
S11306808F024CE351E060E081E00E948F02089504
S113069040E032C0E42FF0E09F012C5F3F4F81E047
S11306A090E002C0880F991F2A95E2F7809585B9DA
S11306B08AE18A95F1F700C093B19F7080E019C078
S11306C0682F70E0292F30E0082E02C03595279559
S11306D00A94E2F720FD0CC08FEF85B9EE0FFF1FDF
S11306E0EE0FFF1FE254FD4FE60FF71F80810895C0
S11306F08F5F843028F34F5F443060F28FEF85B909
S1130700089506C08FE19EE40197F1F700C0000050
S11307100E9448038F3FB1F70E944803EFE3FCE9CE
S11307203197F1F700C000008F3FB1F3FFE728E3F2
S113073031E0F15020403040E1F700C0000008955E
S11307401F93CF93DF930E944803182F8F3F99F094
S1130750C0E0D0E00AC08FE19EE40197F1F700C049
S113076000002196C83CD10540F40E9448031817A4
S113077091F380E003C080E001C081E0DF91CF917C
S11307801F910895CF93DF93CDB7DEB761970FB66E
S1130790F894DEBF0FBECDBF2091EB028091EA0238
S11307A0281710F42093EA02422F50E08091EA02C5
S11307B090E04096481759071CF02F502093EA0206
S11307C040E150E060E270E0CE0101960E9417140F
S11307D0198A40E00CC0FC01E351FD4F8081E1E047
S11307E0F0E0EC0FFD1FE20FF31F80834F5F4031F9
S11307F070F4242F30E08091EA02B901680F711D72
S1130800CB016091EC0270E08617970724F360E057
S113081080E00E947502CE0101960E9482026091DE
S1130820EB028091EA02681B80E00E9475020E943C
S11308306D0261960FB6F894DEBF0FBECDBFDF9197
S1130840CF9108951092EA021092EB021092EC02FA
S113085081E4EDEEF2E0DF011D928A95E9F70E9452
S11308602B034EE451E060E081E00E948F020E947D
S1130870C20308950F931F93CF93DF93CDB7DEB7D1
S113088061970FB6F894DEBF0FBECDBF8091E8022A
S1130890E82FF0E0EE0FFF1FEE0FFF1FE858FD4FAB
S11308A0208131819091E902891303C08EE390E0A5
S11308B002C080E290E03F932F939F938F938FE544
S11308C091E09F938F931F9281E18F938E010F5F2D
S11308D01F4F1F930F930E944014A80160E080E013
S11308E00E948F028091E80290E001960FB6F8947E
S11308F0DEBF0FBECDBF8D3091055CF5FC01EE0F60
S1130900FF1FEE0FFF1FE858FD4F408151812091DA
S1130910E90230E08217930719F48EE390E002C0F5
S113092080E290E05F934F939F938F938FE591E0E4
S11309309F938F931F9281E18F93CE0101969F9392
S11309408F930E9440140FB6F894DEBF0FBECDBF44
S113095009C040E150E060E270E0CE0101960E94DF
S11309601714198AAE014F5F5F4F60E081E00E9467
S11309708F0261960FB6F894DEBF0FBECDBFDF9134
S1130980CF911F910F9108950E9471020E942B0331
S11309900E943A040895CF93DF93C091EB02CC23D5
S11309A0B9F0D091EC028C2F90E04D2F50E0481B11
S11309B0590B4F5F5F4FBC0163517D4F84519D4F75
S11309C00E940514D150D093EC02C150C093EB02A5
S11309D0DF91CF910895AF92BF92DF92EF92FF9291
S11309E00F931F93CF93DF93FC0101900020E9F74D
S11309F03197EF01C81BD90BD090EC024D2D50E07C
S1130A008E0111279A01200F311F2034310504F57E
S1130A107C01D091EB028D2F90E0481B590B4F5F66
S1130A205F4F9C0123513D4F5901800F911FB90124
S1130A3083519D4F0E940514A801B701C5010E946E
S1130A40FC13DC0ED092EC02EC2FED0FE093EB02E2
S1130A50DF91CF911F910F91FF90EF90DF90BF90A6
S1130A60AF900895823469F038F4833209F447C0B2
S1130A70813409F444C051C0833499F0843421F1A1
S1130A804CC08091E902882309F447C081508093C7
S1130A90E9029091E802891708F03FC08093E802C8
S1130AA03CC02091E9022C30C0F541E0420F409354
S1130AB0E90250E08091E80290E002964817590755
S1130AC064F12093E80229C0E091E902F0E0EE0F1E
S1130AD0FF1FEE0FFF1FE858FD4F828193810E9494
S1130AE0EB040E942B034EE451E060E081E00E949D
S1130AF08F020E94C2030E946D0281E008950E9449
S1130B002B034EE451E060E081E00E948F020E94DA
S1130B10C2030E946D0281E008950E943A0482E0BB
S1130B200895AF92BF92CF92DF92EF92FF920F930C
S1130B301F93CF93DF93CDB7DEB7A5970FB6F89485
S1130B40DEBF0FBECDBF7C018FEF8093B103109247
S1130B505204C12C6BC1812F90E00E94DB13892BBE
S1130B6021F08FEFE81AF80A61C1812F90E0C09755
S1130B700A9718F01E3209F05FC01F8EBE016C5D2B
S1130B807F4FC7010E94891268A379A38AA39BA3FC
S1130B902CA13DA1E216F30611F481E073C180910A
S1130BA0520491E0980F9093520490E0DC01AA0F54
S1130BB0BB1FAA0FBB1FA80FB91FAD5ABB4F85E0BF
S1130BC0FE017F9601900D928A95E1F77901CC247C
S1130BD0C3942CC10D2D10E0F801EE0FFF1FE00FA0
S1130BE0F11FE455FD4F60817181FB0101900020EC
S1130BF0E9F731975F01A61AB70AA501C7010E9458
S1130C003214892BB9F482E08F8FF801EE0FFF1FA5
S1130C100E0F1F1FF801E455FD4F528158A342E007
S1130C2069A17AA18BA10E948101EA0CFB1C81E0DD
S1130C30C12C07C0D39401C0D12CE5E0ED1550F6CA
S1130C4080E08111F3C0F701D080F8E2DF120EC01A
S1130C5083E08F8F43E058A169A17AA18BA10E9400
S1130C6081018FEFE81AF80AC12CE0C0E9E2DE1234
S1130C7058C018C00091520481E0800F8093520440
S1130C8010E0C801880F991F880F991F080F191FBA
S1130C900D5A1B4F0E94AF01F80120833183428318
S1130CA0538364830E940B02811109C00E94DF01F7
S1130CB02A8F3B8F4C8F5D8F6E8F2330D9F60E9425
S1130CC00B028111DAC00E94AF010E940B02811154
S1130CD022C00E94DF012D8B3E8B4F8B588F698F72
S1130CE02230C9F48091520491E0980F90935204F9
S1130CF090E08C01000F111F000F111F800F911F36
S1130D008C010D5A1B4F0E94AF01F80120833183DF
S1130D10428353836483FFEFEF1AFF0ACC24C39406
S1130D2085C08BE2D81661F0EDE2DE1649F0FAE2F6
S1130D30DF1631F08FE2D81619F0EEE5DE129FC00F
S1130D40FDE2DF121FC0C1101DC01F8E18A219A220
S1130D501AA21BA28091520491E0980F909352041E
S1130D6090E0DC01AA0FBB1FAA0FBB1F8A0F9B1FB9
S1130D70DC01AD5ABB4F85E0FE017F9601900D92D8
S1130D808A95E1F781E08F8FD8A218C000915204B0
S1130D9081E0800F8093520410E0C801880F991FEE
S1130DA0880F991F080F191F0D5A1B4F0E94AF017E
S1130DB0F801208331834283538364830E940B02AE
S1130DC0811129C00E94DF01288B398B4A8B5B8BF0
S1130DD06C8B213001F50E94DF01832F2B873C8728
S1130DE04D875E876F870E943402082F8D2D0E94E5
S1130DF03402182F801750F20E94DF01832F2E83B4
S1130E003F83488759876A870E943402181303C0B6
S1130E10FEE5DF12BBCF4F8D58A169A17AA18BA14A
S1130E200E9481018FEFE81AF80AC12CF7011081A2
S1130E30111191CE1CC00E94DF01233011F10091E9
S1130E40520481E0800F8093520410E0C801880F9F
S1130E50991F880F991F080F191F0D5A1B4F0E94C5
S1130E60AF01F801208331834283538364830E945A
S1130E700B02882301F380E005C081E003C081E018
S1130E8001C081E0A5960FB6F894DEBF0FBECDBFBA
S1130E90DF91CF911F910F91FF90EF90DF90CF9052
S1130EA0BF90AF9008954F925F926F927F928F920E
S1130EB09F92AF92BF92EF92FF921F93CF93DF93D3
S1130EC000D000D01F92CDB7DEB77C018FEF8093A6
S1130ED0300310E0F9C0E12FF0E0CF01880F991F33
S1130EE0880F991FE80FF91FED5AFB4F85E0DE01CB
S1130EF0119601900D928A95E1F78981811107C0BD
S1130F006A817B818C819D810E941102DCC08130C9
S1130F1009F052C08091300318160CF0C4C00E942E
S1130F2023024B015C010E9423022B013C018A81B4
S1130F308D32A1F028F48A32D1F08B3231F0B5C071
S1130F408F32F1F08E3579F1B0C0A3019201C50161
S1130F50B4010E94880D0E941102B5C0A50194013C
S1130F60C301B2010E94870D0E941102ACC0A3010B
S1130F709201C501B4010E94B70F0E941102A3C0DF
S1130F8020E030E0A901C501B4010E94F40D8823DA
S1130F9009F48DC0A5019401C301B2010E94FE0DA4
S1130FA00E94110290C0A5019401C301B2010E94E4
S1130FB024100E94110287C0823009F084C08091FD
S1130FC0300388230CF475C00E9423024B015C019A
S1130FD025E33AEF4EE85CE30E94B70F2B013C0196
S1130FE08A818230D9F028F4882351F0813079F055
S1130FF06AC08430C1F138F1853009F444C063C05B
S1131000C301B2010E9498100E9411025CC0C30186
S1131010B2010E94F90D0E94110255C0C301B20130
S11310200E94F90D9F772FEF36EE4BED5EE20E94A2
S1131030F40D88230CF43FC0C301B2010E94E610F2
S11310400E94110240C020E030E0A901C501B401B2
S11310500E94F40D88238CF1C501B4010E94A610EE
S11310600E94110230C020E030E0A901C501B401A2
S11310700E94F40D18161CF5C501B4010E945F0FFF
S11310800E94110220C020E030E0A901C501B40192
S11310900E94F40D1816ACF4C501B4010E946F0F40
S11310A00E94110210C081E022C081E020C082E0D1
S11310B01EC081E01CC083E01AC083E018C083E036
S11310C016C083E014C01F5F80915204181708F4FF
S11310D002CF80913003811109C00E942302F701DD
S11310E0608371838283938380E001C081E00F90E9
S11310F00F900F900F900F90DF91CF911F91FF9061
S1131100EF90BF90AF909F908F907F906F905F9083
S11311104F900895CF93DF93EB010E9491058111C5
S113112003C0CE010E945307DF91CF9108958F929F
S11311309F92AF92BF92CF92DF92EF92FF920F9362
S11311401F93CF93DF93CDB7DEB7A1970FB6F89473
S1131150DEBF0FBECDBF182F89831A828091CE02C5
S1131160882381F11092CE028EEB810F823038F405
S11311704EE451E060E081E00E948F0223C01092AF
S1131180EA021092EB021092EC0281E4EDEEF2E03E
S1131190DF011D928A95E9F74EE451E060E081E0B9
S11311A00E948F02143471F40E94A003882331F04A
S11311B01092E9021092E80282E008C10E94C20380
S11311C081E004C1812F90E0FC01B397E232F10584
S11311D008F0F7C0E25CFF4F0C946312CE01019655
S11311E00E94EB04EEC087E691E00E94EB04E9C0A4
S11311F00E94A003882319F11092EA021092EB02D4
S11312001092EC0281E4EDEEF2E0DF011D928A958A
S1131210E9F749E651E060E081E00E948F02BFEF08
S113122025EA8EE0B15020408040E1F700C0000084
S11312304EE451E060E081E00E948F02C2C00E944F
S1131240CB04BFC08091EB02882309F4BAC081505B
S11312508093EB02B6C08091EB029091EC02891767
S113126008F0AFC08F5F8093EB02ABC00E94A00375
S11312708111ABC01092E9021092E80282E0A6C08C
S11312800E94A003882331F01092E9021092E80230
S113129082E09CC00E947102BE01625E7F4F8DEEAF
S11312A092E00E948A0881115FC0CE8CDF8CE8A096
S11312B0F9A0C701B6010E9474104B015C019B01A7
S11312C0AC01C701B6010E94870D9F772DEB37E370
S11312D046E855E30E94F40D882334F528E23BE602
S11312E04EEE5EE4C701B6019F770E94F40D882399
S11312F0DCF4C501B4010E94700E9F938F937F9319
S11313006F938AE791E09F938F931F9281E18F936C
S1131310CE0103969F938F930E9440140FB6F894C6
S1131320DEBF0FBECDBF41C05E01B4E1AB0EB11C48
S1131330850124E040E0C701B6010E946912BF9212
S1131340AF9283ED91E09F938F931F9281E18F93EE
S1131350CE0103969F938F930E9440140FB6F89486
S1131360DEBF0FBECDBF21C0823051F481E1EFE773
S1131370F1E0DE01139601900D928A95E1F715C014
S1131380833051F481E1E0E9F1E0DE01139601904C
S11313900D928A95E1F709C081E1E1EAF1E0DE010D
S11313A0139601900D928A95E1F7AE014D5F5F4F60
S11313B060E081E00E948F0281E08093CE020E946F
S11313C06D020E94C20381E001C080E0A1960FB6C5
S11313D0F894DEBF0FBECDBFDF91CF911F910F9167
S11313E0FF90EF90DF90CF90BF90AF909F908F9041
S11313F008954F925F926F927F928F929F92AF92D5
S1131400BF92CF92DF92EF92FF920F931F93CF93ED
S1131410DF93CDB7DEB7EA970FB6F894DEBF0FBE01
S1131420CDBF0E947102C090D302D090D402E0904C
S1131430D502F090D602A7019601C701B6010E9419
S1131440B70F6FAB78AF89AF9AAF8090D702909007
S1131450D802A090D902B090DA0220E030E040E84F
S113146050E4C501B4010E94B70F4090CF025090E0
S1131470D0026090D1027090D202A30192010E9426
S1131480B70F9B01AC016FA978AD89AD9AAD0E94ED
S1131490870D6FAB78AF89AF9AAF20E030E0A90138
S11314A0C501B4010E94F40D811143C020E030E075
S11314B0A901C701B6010E94F40D81110CC042EBD1
S11314C051E060E00E948F0241EB51E060E081E076
S11314D00E948F0261C18AE0E2ECF1E0DE01119624
S11314E001900D928A95E1F7C301B20190585E0113
S11314F023E2A20EB11CA70196010E94FE0D8501F4
S113150024E040E00E946912BF92AF928CEC91E01B
S11315109F938F931F9281E18F93CE0142969F9365
S11315208F930E9440140FB6F894DEBF0FBECDBF58
S113153025C12FE530E749E850E36FA978AD89ADBF
S11315409AAD0E945A0F18160CF076C06FA978ADA8
S113155089AD9AAD0E94A6102B013C01A70196010A
S11315600E94870D6FAB78AF89AF9AAFA501940144
S1131570C501B4010E94880D9B01AC016E0193E288
S1131580C90ED11C6FA978AD89AD9AAD0E94FE0D2C
S1131590860124E040E00E9469128091D302909178
S11315A0D402A091D502B091D602BC01CD019058CD
S11315B0A30192010E94870D4B015C016091D70247
S11315C07091D8028091D9029091DA029B01AC010A
S11315D00E94880D9B01AC017E018DE2E80EF11C96
S11315E0C501B4010E94FE0D870124E040E00E9481
S11315F06912DF92CF9281ED91E09F938F931F92B6
S113160011E11F93CE0101969F938F930E94401482
S1131610FF92EF9287ED91E09F938F931F921F9318
S1131620CE0142969F938F930E9440140FB6F89474
S1131630DEBF0FBECDBFA2C02FE530E749E850EBB7
S11316406FA978AD89AD9AAD0E945A0F8823CCF169
S11316508CE0EDEDF1E0DE01119601900D928A959A
S1131660E1F72601370177FA709477F87094A501B1
S11316709401C501B4010E94880D9B01AC017E0157
S113168093E2E90EF11CC301B2010E94FE0D870131
S113169024E040E00E946912FF92EF928CEC91E00A
S11316A09F938F931F9281E18F93CE0142969F93D4
S11316B08F930E9440140FB6F894DEBF0FBECDBFC7
S11316C05DC0F7FAF094F7F8F094A5019401C50110
S11316D0B4010E94880D4B015C019B01AC01C70160
S11316E0B6010E94FE0D6B017C016FA978AD89AD36
S11316F09AAD90580E94A610A50194010E94FE0D77
S11317002B013C015E0193E2A90EB11C850123E08B
S113171040E0C701B6010E9469127E012DE2E20E8B
S1131720F11C870123E040E0C301B2010E94691269
S1131730FF92EF92BF92AF9289EE91E09F938F93C5
S11317401F9211E11F93CE0101969F938F930E94E4
S11317504014FF92EF92BF92AF9280EF91E09F937B
S11317608F931F921F93CE0142969F938F930E9453
S113177040140FB6F894DEBF0FBECDBFAE014F5F6D
S11317805F4F60E080E00E948F02AE014E5E5F4FCB
S113179060E081E00E948F02EA960FB6F894DEBF03
S11317A00FBECDBFDF91CF911F910F91FF90EF90AE
S11317B0DF90CF90BF90AF909F908F907F906F906D
S11317C05F904F900895EF92FF920F931F93CF93E2
S11317D0DF93CDB7DEB7A8970FB6F894DEBF0FBE80
S11317E0CDBF86E0E0E0F1E0DE01119601900D92BC
S11317F08A95E1F78BE0E7EFF1E0DE0117960190BF
S11318000D928A95E1F70BED12E01F930F93E0918F
S1131810E702F0E0EE0FFF1F81E090E08C0F9D1FC8
S1131820E80FF91F81818F9380818F9382E092E08A
S11318309F938F931F9281E18F937E0198E1E90E2C
S1131840F11CFF92EF920E944014AE01495F5F4F7A
S113185060E080E00E948F02A70160E081E00E94C6
S11318608F02F80101900020E9F731978F010B5D99
S1131870124068E0600F81E00E9475020E946D02D0
S11318800FB6F894DEBF0FBECDBFA8960FB6F8947E
S1131890DEBF0FBECDBFDF91CF911F910F91FF909F
S11318A0EF9008950F931F93CF93DF93813409F43E
S11318B0A3C0182F8091E702833079F41092E702D5
S11318C08CE0EBEDF2E0DF011D928A95E9F70E94CE
S11318D02B030E94E30B83E090C0EBEDF2E0019058
S11318E00020E9F73197EF01CB5DD2400C2F80ED5A
S11318F0810F8A3068F4CA3008F07AC0FE01FF27ED
S1131900DF01A552BD4F1C93E452FD4F108270C0FD
S11319101A32B1F46EE270E08BED92E00E941E1474
S1131920892B71F4CA3008F063C0FE01FF27DF0180
S1131930A552BD4F8EE28C93E452FD4F108258C0E5
S1131940133299F4002329F0FE01FF27E652FD4FDC
S1131950108264E172E08BED92E00E942914892BDD
S113196009F046C01092DB0243C0123441F4011165
S113197006C0EBEDF2E08DE28083118239C01434AD
S1131980B9F50023A9F18BED92E00E94D7132091C1
S1131990E702211109C06093D7027093D8028093A3
S11319A0D9029093DA0213C0213049F46093D30230
S11319B07093D4028093D5029093D60208C06093AA
S11319C0CF027093D0028093D1029093D2029CE014
S11319D0EBEDF2E0DF011D929A95E9F781E0820FC9
S11319E08093E702833021F40E94F90983E005C063
S11319F00E94E30B83E001C080E0DF91CF911F914F
S1131A000F9108951092E7021092CF021092D00223
S1131A101092D1021092D2021092D3021092D402E8
S1131A201092D5021092D6021092D7021092D802C8
S1131A301092D9021092DA028CE0EBEDF2E0DF01B1
S1131A401D928A95E9F70E942B030E94E30B0895E7
S1131A500E94F5020E947C010E942B0346E152E0A1
S1131A6060E080E00E948F0247E252E060E081E0A3
S1131A700E948F022FEF83ED90E32150804090402D
S1131A80E1F700C000000E9435030E948103C09169
S1131A902F03C13049F028F0C23049F0C33051F06F
S1131AA00CC00E94CD020AC00E94970807C00E9481
S1131AB0320504C00E94520C01C08C2F90912F0358
S1131AC0891719F380932F03813049F028F082306D
S1131AD0B1F08330B9F0D9CF0E943503D6CFC1110C
S1131AE003C00E942204D1CF0E942B034EE451E094
S1131AF060E081E00E948F020E94C203C6CF0E9470
S1131B00C404C3CFC111C1CF0E94020DBECF50582F
S1131B10BB27AA270E949F0D0C940C0F0E94D30E82
S1131B2038F00E94DA0E20F039F49F3F19F426F4BD
S1131B300C94D00E0EF4E095E7FB0C94CA0EE92F3A
S1131B400E94310F58F3BA17620773078407950789
S1131B5020F079F4A6F50C94530F0EF4E0950B2EB7
S1131B60BA2FA02D0B01B90190010C01CA01A001EB
S1131B701124FF27591B99F0593F50F4503E68F146
S1131B801A16F040A22F232F342F4427585FF3CF87
S1131B90469537952795A795F0405395C9F77EF458
S1131BA01F16BA0B620B730B840BBAF09150A1F0A1
S1131BB0FF0FBB1F661F771F881FC2F70EC0BA0F27
S1131BC0621F731F841F48F4879577956795B795AF
S1131BD0F7959E3F08F0B0CF9395880F08F09927AA
S1131BE0EE0F9795879508950E94A60E08F481E05C
S1131BF008950E94E30EE3950C941D0F0E94120EAB
S1131C000C940C0F0E94DA0E58F00E94D30E40F090
S1131C1029F45F3F29F00C94CA0E51110C94540F0F
S1131C200C94D00E0E94310F68F39923B1F355231D
S1131C3091F3951B550BBB27AA27621773078407DB
S1131C4038F09F5F5F4F220F331F441FAA1FA9F371
S1131C5035D00E2E3AF0E0E832D091505040E6955F
S1131C60001CCAF72BD0FE2F29D0660F771F881FC0
S1131C70BB1F261737074807AB07B0E809F0BB0BB3
S1131C80802DBF01FF2793585F4F3AF09E3F5105C7
S1131C9078F00C94CA0E0C94540F5F3FE4F3983E12
S1131CA0D4F3869577956795B795F7959F5FC9F7B0
S1131CB0880F911D9695879597F90895E1E0660F31
S1131CC0771F881FBB1F621773078407BA0720F0AA
S1131CD0621B730B840BBA0BEE1F88F7E095089513
S1131CE00E94770E6894B1110C94540F08950E94C9
S1131CF0390F88F09F5798F0B92F9927B751B0F052
S1131D00E1F0660F771F881F991F1AF0BA95C9F77B
S1131D1014C0B13091F00E94530FB1E008950C94B7
S1131D20530F672F782F8827B85F39F0B93FCCF36A
S1131D30869577956795B395D9F73EF490958095F8
S1131D40709561957F4F8F4F9F4F0895990F0008AD
S1131D50550FAA0BE0E8FEEF16161706E807F90779
S1131D60C0F012161306E407F50798F0621B730B14
S1131D70840B950B39F40A2661F0232B242B252B95
S1131D8021F408950A2609F4A140A6958FEF811D38
S1131D90811D089597F99F6780E870E060E00895D9
S1131DA09FEF80EC089500240A941616170618066F
S1131DB00906089500240A9412161306140605064B
S1131DC008950C94D00E0E94390FD8F3E894E0E003
S1131DD0BB279F57F0F02AED3FE049EC06C0EE0F19
S1131DE0BB0F661F771F881F28F0B23A620773077C
S1131DF0840728F0B25A620B730B840BE3959A950F
S1131E0072F7803830F49A95BB0F661F771F881FCE
S1131E10D2F790480C949F11092E0394000C11F4EE
S1131E20882352F0BB0F40F4BF2B11F460FF04C0B1
S1131E306F5F7F4F8F4F9F4F0895EF93E0FF07C071
S1131E40A2EA2AED3FE049EC5FEB0E949F0D0E945D
S1131E500C0F0F90039401FC9058E0ECF0E00C940C
S1131E60D91157FD9058440F551F59F05F3F71F039
S1131E704795880F97FB991F61F09F3F79F08795ED
S1131E800895121613061406551FF2CF4695F1DF76
S1131E9008C0161617061806991FF1CF8695710506
S1131EA0610508940895E894BB2766277727CB013A
S1131EB097F908950E94A60E08F48FEF08950E94E2
S1131EC06F0F29ED3BE54EED5EE30C94B70F16F072
S1131ED00C949D110C94D00E68940C94CA0E0E941C
S1131EE0390FA8F39923C1F3AEF3DF93CF931F9374
S1131EF00F93FF92C92FDD2788232AF02197660FBD
S1131F00771F881FDAF720E030E040E85FEB9FE3BB
S1131F10883920F0803E38F021968F770E94880D12
S1131F20EEEDF0E004C00E94880DEBE0F1E00E94C9
S1131F30B2118B01BE01EC01FB2E6F57710975952F
S1131F40771F880B990B0E94471128E132E741E380
S1131F505FE30E94CA0FAF2D9801AE01FF900F916D
S1131F601F91CF91DF910E949F0D0C940C0F0E9442
S1131F70CA0F0C940C0F0E94D30E38F00E94DA0E94
S1131F8020F0952311F00C94CA0E0C94D00E112459
S1131F900C94540F0E94310F70F3959FC1F3950F69
S1131FA050E0551F629FF001729FBB27F00DB11DD9
S1131FB0639FAA27F00DB11DAA1F649F6627B00D69
S1131FC0A11D661F829F2227B00DA11D621F739F52
S1131FD0B00DA11D621F839FA00D611D221F749F60
S1131FE03327A00D611D231F849F600D211D822FA7
S1131FF0762F6A2F11249F5750409AF0F1F08823CE
S11320004AF0EE0FFF1FBB1F661F771F881F9150FA
S11320105040A9F79E3F510580F00C94CA0E0C94D1
S1132020540F5F3FE4F3983ED4F386957795679514
S1132030B795F795E7959F5FC1F7FE2B880F911D24
S11320409695879597F90895FA01EE0FFF1F30963C
S113205021053105A1F16115710561F48038BFE3F3
S11320609B0749F168949038810561F08038BFEF8F
S11320709B0741F099234AF5FF3FE105310521050E
S113208019F1E8940894E795D901AA2329F4AB2F10
S1132090BE2FF85FD0F310C0FF5F70F4A695E0F791
S11320A0F73950F019F0FF3A38F49F779F930DD029
S11320B00F9007FC9058089546F00C94D00E60E001
S11320C070E080E89FE308954FE79F775F934F9315
S11320D03F932F930E946F0F2F913F914F915F91E8
S11320E00E94B70F0C9413110E94390FE8F09E3729
S11320F0E8F09639B8F49E3848F4672F782F88278B
S1132100985FF9CF86957795679593959539D0F330
S1132110B62FB1706B0F711D811D20F487957795D3
S1132120679593950C9482110C949D110C94540F03
S11321309F930E94E30E0F9007FCEE5F0C941D0F1B
S113214019F416F40C94D00E0C949D110E94390FBE
S1132150B8F39923C9F3B6F39F57550B87FF0E9431
S1132160AB110024A0E640EA90018058569597955B
S113217028F4805C660F771F881F20F02617370726
S1132180480730F4621B730B840B202931294A2B36
S1132190A69517940794202531254A2758F7660FEA
S11321A0771F881F20F026173707480730F4620B83
S11321B0730B840B200D311D411DA09581F7B901CE
S11321C0842F9158880F969587950895DF93D92F7A
S11321D00E94E30EE695D7952AED3FE049E45FE3DC
S11321E0B33A6207730784079507D7953AF0A2EAD2
S11321F049EC90680E949F0D0E940C0FE8E3F1E007
S11322000E94D911DD0F13F00E94ED11DD0F0BF4C4
S11322109058DF91089529F416F00C94CA0E0C948A
S1132220530F0C94D00E0E94390FA8F39638A0F7E0
S113223007F80F92E8942BE33AEA48EB5FE70E9431
S1132240CD0F0F920F920F924DB75EB70F920E946F
S11322502F12EBE5F1E00E94B2114F915F91EF91E3
S1132260FF91E595EE1FFF1F49F0FE57E0684427F4
S1132270EE0F441FFA95E1F74195550B0E94F911B1
S11322800F9007FE0C94ED110895E89409C097FB94
S11322903EF490958095709561957F4F8F4F9F4F39
S11322A09923A9F0F92F96E9BB279395F69587957D
S11322B077956795B795F111F8CFFAF4BB0F11F440
S11322C060FF1BC06F5F7F4F8F4F9F4F16C08823E7
S11322D011F096E911C0772321F09EE8872F762F1D
S11322E005C0662371F096E8862F70E060E02AF05E
S11322F09A95660F771F881FDAF7880F969587954A
S113230097F90895882371F4772321F09850872B47
S1132310762F07C0662311F499270DC09051862BA0
S113232070E060E02AF09A95660F771F881FDAF74D
S1132330880F9695879597F908959F3F31F09150AE
S113234020F4879577956795B795880F911D969595
S1132350879597F9089591505040660F771F881F0D
S1132360D2F70895DF93CF931F930F93FF92EF92C9
S1132370DF927B018C01689406C0DA2EEF010E9483
S1132380CA0FFE01E894A591259135914591559187
S1132390A6F3EF010E949F0DFE019701A801DA94B4
S11323A069F7DF90EF90FF900F911F91CF91DF912C
S11323B008959F938F937F936F93FF93EF939B0164
S11323C0AC010E94B70FEF91FF910E94B2112F91BF
S11323D03F914F915F910C94B70F9B01AC0160E06A
S11323E070E080E89FE30C94FE0D0C94CA0E0C94EC
S11323F09D110E94390FD8F39923C9F3940F511DED
S1132400A3F39150504094F059F0882332F0660FB2
S1132410771F881F91505040C1F79E3F51052CF7FC
S1132420880F911D9695879597F908955F3FACF0B5
S1132430983E9CF0BB27869577956795B79508F4E9
S1132440B1609395C1F7BB0F58F711F460FFE8CF63
S11324506F5F7F4F8F4F9F4FE3CF0C94540FFA0160
S1132460DC01AA0FBB1F9B01AC01BF5728F4222734
S113247033274427507820C0B75190F4AB2F002461
S1132480469537952795011CA395D2F3002071F04A
S1132490220F331F441FB395DAF30ED00C94870D2B
S11324A061307105A0E88A07B94630F49B01AC019C
S11324B06627772788279078309621F02083318308
S11324C0428353830895EE0FFF1F0590F491E02D8E
S11324D00994EF920F931F93CF93DF93E80147FD85
S11324E002C034E001C034E1042E000C550B57FF48
S11324F003C0519541955109E32E022F242FAE01BB
S11325000E945116CE01DF91CF911F910F91EF9050
S11325100895A0E0B0E0EFE8F2E10C944719EC0173
S11325206B016115710519F0FB01918380837E01B4
S1132530FFEFEF1AFF0A0881802F90E00E94DB135F
S1132540892B11F0E701F3CF0D3239F47E0182E0DB
S1132550E80EF11C098111E008C00B3229F47E0158
S113256092E0E90EF11C098110E0E701219743E0B4
S113257050E06CE871E0CE010E94E413892BC1F4B1
S1132580239645E050E067E871E0CE010E94E41331
S1132590892B09F42596C114D10419F0F601D183CD
S11325A0C0831111F6C060E070E080E89FE7FAC0D4
S11325B043E050E064E871E0CE010E94E413892B0B
S11325C059F4C114D10409F4E9C0F2E0EF0EF11C8E
S11325D0F601F182E082E2C020E030E0A901C0E02F
S11325E0D0E0F70180EDA82EA00E89E08A1530F125
S11325F0912F9260B92E812F887012FF04C081112F
S113260024C0219622C081112197A5E0B0E00E9448
S11326103619DC01CB01880F991FAA1FBB1F9C012F
S1132620AD012A0D311D411D511D283989E9380795
S1132630480789E1580748F0166006C09EEFA912C2
S11326400AC013FD40C01860B12E8FEFE81AF80AD3
S113265000811B2DC6CF802F8F7D8534A1F580810D
S11326608D3211F4106106C08B3221F0319661E095
S113267070E004C08181329662E070E080538A3059
S113268018F0E61BF70B1FC060E070E060389CE0B8
S113269079075CF4DB01AA0FBB1FAA0FBB1F6A0FEB
S11326A07B1F660F771F680F711D3196DF0111972D
S11326B08C9180538A3050F314FF03C07195619557
S11326C07109C60FD71F11FF08C0C114D10429F026
S11326D0CF010197F60191838083CA01B9010E9459
S11326E04511212F2370233019F04B015C0106C0E2
S11326F04B015C01B7FAB094B7F8B09420E030E035
S1132700A901C501B4010E94F40D882309F43EC057
S1132710D7FF06C0D195C195D10903EA11E002C0E3
S11327200BEB11E06801F8E1CF1AD10890E2E92E31
S1132730F12CCE15DF0574F0F80125913591459102
S11327405491C501B4010E94B70F4B015C01CE192D
S1132750DF09EFCF04501109F594E7940C151D051A
S113276041F78A2D880F8B2D881F8F3F49F020E079
S113277030E0A901C501B4010E94F40D811106C025
S113278082E290E09093F4048093F304C501B401D1
S113279009C060E070E080E89FEF04C060E070E092
S11327A080EC9FE7CDB7DEB7ECE00C9463196627A5
S11327B077270C94891291110C948318803219F0A4
S11327C089508550C8F70895FB01DC014150504001
S11327D088F08D9181341CF08B350CF4805E65910A
S11327E061341CF06B350CF4605E861B611171F36F
S11327F0990B0895881BFCCFFB01DC0102C00190FA
S11328000D9241505040D8F708956817790768F43D
S1132810FB01DC01E40FF51FA40FB51F02C00290F9
S11328200E9241505040D8F708950C94FC13DC01EB
S113283001C06D9341505040E0F70895FC0181912F
S1132840861721F08823D9F7992708953197CF0166
S11328500895FB01DC018D91019080190110D9F3D9
S1132860990B0895FB01DC014150504030F08D91EB
S11328700190801919F40020B9F7881B990B089569
S1132880AEE0B0E0E6E4F4E10C944F190D891E8942
S11328908F89988D26E02C831A83098397FF02C0C1
S11328A080E090E801979E838D83AE01455E5F4F83
S11328B0698D7A8DCE0101960E9470144D815E81DE
S11328C057FD0AC02F813885421753070CF49A012B
S11328D0F801E20FF31F10822E96E4E00C946B19BA
S11328E0ABE0B0E0E6E7F4E10C9441196C017B0144
S11328F08A01FC0117821682838181FFCCC1CE013B
S113290001963C01F6019381F70193FD859193FFB4
S113291081917F01882309F4BAC1853239F493FD8A
S1132920859193FF81917F01853229F4B60190E06E
S11329300E949C18E7CF912C212C312CFFE1F31538
S1132940D8F08B3279F038F4803279F08332A1F404
S1132950232D20611DC08D3261F0803369F4232D55
S1132960216016C0832D8260382EE32DE4603E2E54
S11329702AC0F32DF8601DC037FC2DC020ED280FB0
S11329802A3040F08E32B9F436FC81C1232D206404
S1132990322E19C036FE06C08AE0989E200D1124FE
S11329A0922E11C0EAE02E9E200D1124222EF32D2A
S11329B0F0623F2E08C08C3621F4832D8068382EB7
S11329C002C0883641F4F70193FD859193FF81910C
S11329D07F018111B3CF982F9F7D9554933028F4B4
S11329E00C5F1F4F9FE399830DC0833631F083370B
S11329F071F0833509F059C021C0F80180818983C1
S1132A000E5F1F4F88248394912C530113C0280117
S1132A10F2E04F0E511CF801A080B18036FE03C0D5
S1132A20692D70E002C06FEF7FEFC5010E9491181D
S1132A304C018201F32DFF773F2E16C0280122E0BE
S1132A40420E511CF801A080B18036FE03C0692DEE
S1132A5070E002C06FEF7FEFC5010E9486184C0141
S1132A60F32DF0683F2E820133FC1BC0822D90E0D1
S1132A7088169906B0F4B60180E290E00E949C1892
S1132A802A94F4CFF50137FC859137FE81915F01DB
S1132A90B60190E00E949C1821102A9421E0821A29
S1132AA091088114910471F7E8C0843611F08936D5
S1132AB041F5F80137FE07C06081718182819381FD
S1132AC00C5F1F4F08C060817181072E000C880BBA
S1132AD0990B0E5F1F4FF32DFF763F2E97FF09C012
S1132AE090958095709561957F4F8F4F9F4FF068BB
S1132AF03F2E2AE030E0A3010E94D818882E8618C1
S1132B0045C0853731F4232D2F7EB22E2AE030E0E4
S1132B1025C0932D997FB92E8F36C1F018F48835CE
S1132B2079F0B5C0803719F0883721F0B0C0E92FAB
S1132B30E061BE2EB4FE0DC0FB2DF460BF2E09C0B3
S1132B4034FE0AC0292F2660B22E06C028E030E0E9
S1132B5005C020E130E002C020E132E0F801B7FE18
S1132B6007C060817181828193810C5F1F4F06C011
S1132B706081718180E090E00E5F1F4FA3010E948D
S1132B80D818882E8618FB2DFF773F2E36FE0DC0F1
S1132B90232D2E7FA22E891458F434FE0BC032FC50
S1132BA009C0832D8E7EA82E05C0B82CA32C03C08B
S1132BB0B82C01C0B92CA4FE0FC0FE01E80DF11D14
S1132BC08081803321F49A2D997EA92E09C0A2FE1A
S1132BD006C0B394B39404C08A2D867809F0B394E4
S1132BE0A3FC11C0A0FE06C0B21488F4280C922CD9
S1132BF09B180EC0B21460F4B60180E290E00E940B
S1132C009C18B394F7CFB21418F42B1802C0982C64
S1132C10212CA4FE10C0B60180E390E00E949C1811
S1132C20A2FE17C0A1FC03C088E790E002C088E5BB
S1132C3090E0B6010CC08A2D867859F0A1FE02C03E
S1132C408BE201C080E2A7FC8DE2B60190E00E9415
S1132C509C18891438F4B60180E390E00E949C1813
S1132C609A94F7CF8A94F301E80DF11D8081B6019F
S1132C7090E00E949C188110F5CF222009F442CEE6
S1132C80B60180E290E00E949C182A94F6CFF601E7
S1132C908681978102C08FEF9FEF2B96E2E10C941F
S1132CA05D19A9E0B0E0E7E5F6E10C9447196A0183
S1132CB0122FB02E2BE3201720F0FF24F394F00EF4
S1132CC002C02CE3F22E0F2D27E0AE014F5F5F4FC1
S1132CD00E94AB17BC014981842F8970813031F087
S1132CE0E1FC06C0E0FE06C090E205C09DE203C020
S1132CF09BE201C090E05E2D507143FF3CC09111F6
S1132D0002C083E001C084E0811718F4212F281B3E
S1132D1001C020E051110BC0F601822F30E288235C
S1132D2019F031938150FBCFC20ED11C20E09923BE
S1132D3029F0D6019C93F60131966F01C6010396E2
S1132D40E2FE0AC03EE4D6013C9341E411964C9362
S1132D50119712963C9306C03EE6F601308341E695
S1132D6041833283FC01322F40E2332309F442C011
S1132D7041933150FACF42FF44C0911102C083E025
S1132D8001C084E0811718F4212F281B01C020E022
S1132D9051110BC0F601822F30E2882319F03193D0
S1132DA08150FBCFC20ED11C20E0992329F0D6011B
S1132DB09C93F60131966F01C6010396E2FE0BC0A7
S1132DC039E4D6013C933EE411963C93119736E4E2
S1132DD012963C9307C039E6F60130833EE6318310
S1132DE036E63283FC01322F40E2332319F041935B
S1132DF03150FBCFFC01E20FF11D10828EEF9FEFEB
S1132E00A6C021E030E0911102C020E030E01616A7
S1132E1017061CF4FB01319602C0E1E0F0E02E0F2E
S1132E203F1FBB2021F0EB2DF0E0319602C0E0E023
S1132E30F0E02E0F3F1FE12FF0E02E173F071CF4A8
S1132E40121B212F01C020E08E2D887159F4F60148
S1132E50822F30E2882319F031938150FBCFC20EC8
S1132E60D11C20E0992329F0D6019C93F6013196D8
S1132E706F0151110BC0F601822F90E3882319F0E2
S1132E8091938150FBCFC20ED11C20E00F2D060F71
S1132E909A81342F307144FF03C0913309F40150F7
S1132EA0101624F4093018F008E001C001E0AB0169
S1132EB077FF02C040E050E0FB01E41BF50BA1E00A
S1132EC0B0E0AC0FBD1FEA0FFB1F8EE2A82E4B0132
S1132ED0801A91080B2D10E01195019511094F3FAF
S1132EE0BFEF5B0721F4D601AC9211966D01641714
S1132EF075072CF08416950614F4818101C080E3D3
S1132F00415051093196D60111967D014017510760
S1132F1024F0D6018C936701E2CF6417750739F466
S1132F20963320F4953319F4311101C081E3F6018D
S1132F308083F701822F90E2882319F091938150C6
S1132F40FBCFF701E20FF11D108280E090E029969B
S1132F50ECE00C946319283008F027E03327DA01F9
S1132F60990F311D87FD916000966105710539F453
S1132F7032602E5F3D9330E32A95E1F708959F3F39
S1132F8030F080387105610509F03C5F3C5F3D938A
S1132F90913008F08068911DDF93CF931F930F93B6
S1132FA0FF92EF92192F987F9695E92F9695969513
S1132FB0E90FFF27E75EFD4F99273327EE24FF240F
S1132FC0A701E70105900894079428F4360FE71E3B
S1132FD0F81E491F511D660F771F881F991F0694FD
S1132FE0A1F70590079428F4E70EF81E491F561F11
S1132FF0C11D770F881F991F661F0694A1F70590BE
S1133000079428F4F80E491F561FC71FD11D880FB7
S1133010991F661F771F0694A1F70590079420F463
S1133020490F561FC71FD81F990F661F771F881F88
S11330300694A9F784911095177041F0D695C79519
S113304057954795F794E7941A95C1F7EFEBF1E09C
S113305068941590159135916591959105907FE24D
S11330607395E118F10A430B560BC90BD009C0F74D
S1133070E10CF11E431F561FC91FD01D7EF470338F
S113308011F48A95E6CFE894015030F0080F0AF461
S11330900027021708F4202F2395022F7A3328F0F3
S11330A079E37D932A95E9F710C07D932A9589F6F3
S11330B0069497956795379517951794E118F10A33
S11330C0430B560BC90BD00998F023957E91739549
S11330D07A3308F070E37C932013B8F77E91706123
S11330E07D9330F0839571E37D9370E32A95E1F746
S11330F01124EF90FF900F911F91CF91DF919927A9
S113310087FD90950895992788270895FC010590D7
S1133110615070400110D8F7809590958E0F9F1FD5
S11331200895FC016150704001900110D8F780951A
S113313090958E0F9F1F08950F931F93CF93DF9346
S1133140FB01238121FD03C08FEF9FEF2CC022FFE1
S113315016C046815781248135814217530744F4B0
S1133160A081B1819D012F5F3F4F318320838C93D8
S1133170268137812F5F3F4F3783268314C08B010D
S1133180EC01FB010084F185E02D0995892BE1F622
S1133190D80116968D919C911797019617969C933A
S11331A08E931697CE01DF91CF911F910F910895C1
S11331B0FA01AA27283051F1203181F1E8946F9364
S11331C06E7F6E5F7F4F8F4F9F4FAF4FB1E03ED00A
S11331D0B4E03CD0670F781F891F9A1FA11D680FA8
S11331E0791F8A1F911DA11D6A0F711D811D911DDB
S11331F0A11D20D009F468943F912AE0269F112450
S11332003019305D3193DEF6CF010895462F4770B3
S1133210405D4193B3E00FD0C9F7F6CF462F4F700E
S1133220405D4A3318F0495D31FD4052419302D06C
S1133230A9F7EACFB4E0A695979587957795679512
S1133240BA95C9F700976105710508959B01AC0112
S11332500A2E06945795479537952795BA95C9F739
S1133260620F731F841F951FA01D08950E94781973
S1133270A59F900DB49F900DA49F800D911D1124C6
S113328008952F923F924F925F926F927F928F9206
S11332909F92AF92BF92CF92DF92EF92FF920F93E1
S11332A01F93CF93DF93CDB7DEB7CA1BDB0B0FB6EB
S11332B0F894DEBF0FBECDBF09942A8839884888A8
S11332C05F846E847D848C849B84AA84B984C8843E
S11332D0DF80EE80FD800C811B81AA81B981CE0F35
S11332E0D11D0FB6F894DEBF0FBECDBFED0108951A
S11332F0A29FB001B39FC001A39F700D811D112433
S1133300911DB29F700D811D1124911D0895F89493
S1053310FFCFE9
S11333121002120228013E312E54696E682062693D
S1133322657520746875630020312E54696E6820B7
S1133332626965752074687563003E322E4769615F
S113334269205054206261632032200020322E47CB
S11333526961692050542062616320322000413A3D
S1133362546F616E20233A586F6120443A3D002520
S113337263252D313573002E0020202D2D20204170
S11333824320202D2D20202020003D256C64004563
S113339252523A436869612063686F2030202000EA
S11333A24552523A4E676F6169206D69656E2020FD
S11333B2004552523A4375207068617020202020E3
S11333C22000566F20736F2F566F206E67686965F1
S11333D26D0050542062616320313A00783D2573B8
S11333E20078313D25730078323D2573004E6768BD
S11333F269656D206B65703A0025732B257369002E
S113340225732D257369006178322B62782B633D15
S113341230004E6861702025733A20252D377300E1
S1133422610062002D00202043414C43554C41541D
S11334324F5220202020002041546D6567613332B1
S113344234502046534D20002B002A002F0029001F
S11334525E0073717274280073696E2800636F735F
S1133462280074616E28006C6F6728006C6E280057
S113347273696E00636F730074616E0073717274AA
S1133482006C6F67006C6E0038023802140214027A
S11334923A023A023C023C025A025A023E023E02FA
S11334A24002400242024202480248024D024D02D8
S11334B252025202570257025C025C02600200642A
S11334C202016802026C020371020475020543449C
S11134D2232A3839414234353637303132330B
S9030000FC
