:020000020000FC
:1000000000C008E00EBF0FEF0DBF1BD013D0009152
:100010007A00006400937A0010917A0014FFFCCFFC
:10002000106110937A0020917800309179001DD0F2
:1000300025D0EDCF00E400937C0006E800937A0021
:10004000089500E00093C50003E30093C40008E0B6
:100050000093C10006E00093C20008951091C00013
:1000600015FFFCCF0093C600089505E5F7DF032FC9
:10007000F5DF022FF3DF0FEFF1DF089544E658ECD0
:1000800068EC6A95F1F75A95D9F74A95C1F7089542
:00000001FF
