S01700004763634170706C69636174696F6E312E737265635B
S11300000C941A010C9437010C9437010C943701A9
S11300100C9437010C9437010C9437010C9437017C
S11300200C9437010C9437010C9437010C9437016C
S11300300C9437010C9437010C9437010C9437015C
S11300400C9437010C9437010C9437010C9437014C
S11300500C9437010C9437010C9437010C9437013C
S11300600C9437010C9437010C9437010C9437012C
S11300700C9437010C9437010C9437010763423612
S1130080B79BD8A71A39685618AEBAAB558C1D3C25
S1130090B7CC5763BD6DEDFD753EF6177231BF00E9
S11300A00000803F08000000BE922449123EABAA23
S11300B0AA2ABECDCCCC4C3E00000080BEABAAAA7E
S11300C0AA3E00000000BF000000803F00000000C6
S11300D000084178D3BB4387D1133D190E3CC3BDFF
S11300E04282AD2B3E68EC8276BED98FE1A93E4CAC
S11300F080EFFFBE01C4FF7F3F00000000004E41BF
S11301004E494E495459494E46CDCCCC3D0AD7238D
S11301103C17B7D13877CC2B329595E6241FB14FD5
S11301200A000020410000C84200401C4620BCBE1A
S11301304CCA1B0E5AAEC59D7400407A10F35A0087
S1130140A0724E18090010A5D4E80000E8764817FC
S11301500000E40B54020000CA9A3B000000E1F5E1
S113016005000080969800000040420F000000A0A7
S11301708601000000102700000000E803000000D2
S1130180006400000000000A0000000000010000FC
S11301900000002C76D888DC674F0823DFC1DFAE6F
S11301A059E1B1B796E5E3E453C63AE65199769638
S11301B0E8E6C28426EB898C9B62ED407C6FFCEF01
S11301C0BC9C9F40F2BAA56FA5F490055A2AF75C2F
S11301D0936B6CF9676DC11BFCE0E40D47FEF520E1
S11301E0E6B500D0ED902E030094357705008084A9
S11301F01E080000204E0A000000C80C33333333BD
S11302000F986E12831141EF8D2114893BE6551628
S1130210CFFEE6DB18D1844B381BF77C1D901DA460
S1130220BBE424203284725E228100C9F124ECA153
S1130230E53D270011241FBECFEFD8E0DEBFCDBFC0
S113024011E0A0E0B1E0E6ECFDE102C005900D9202
S1130250A233B107D9F721E0A2E3B1E001C01D92B6
S1130260A433B207E1F70E9416020C94E10E0C9439
S1130270000085B1846085B98AE18A95F1F700C0F0
S113028085B18B7F85B98FE99FE00197F1F700C0B5
S11302900000089595B19F70807F892B85B90E94D5
S11302A039010895CF93C82F85B18E7F85B985B163
S11302B08D7F85B98C2F0E944A018C2F8295807F77
S11302C00E944A01CF910895CF93C82F85B18160D0
S11302D085B985B18D7F85B98C2F0E944A018C2FF9
S11302E08295807F0E944A01CF9108958FEF84B94F
S11302F02FE788E391E0215080409040E1F700C06F
S1130300000082E00E94520188E20E9452018CE0C7
S11303100E94520181E00E9452010895CF93DF931D
S1130320EC0103C021960E94640188818111FACFF7
S1130330DF91CF910895CF93DF93CDB7DEB7609768
S11303400FB6F894DEBF0FBECDBF80E1E0E0F1E070
S1130350DE01119601900D928A95E1F720E030E0DC
S113036057C0A9014C5F5F4F81E090E002C0880F45
S1130370991F4A95E2F780958F6082B94AE14A95C0
S1130380F1F700C080B18F708F3009F43FC08FE364
S11303909CE90197F1F700C0000080B1982F9F708D
S11303A09F30A1F180FF09C081FF0AC082FF0BC00A
S11303B083FF0CC08FEF9FEF0BC080E090E008C07C
S11303C081E090E005C082E090E002C083E090E02C
S11303D08F3FEFEF9E07D1F006C0EFECF7E03197C7
S11303E0F1F700C0000040B14F704F30B1F7880FF3
S11303F0991F880F991F41E050E04C0F5D1F840F37
S1130400951FFC01E20FF31F808107C02F5F3F4F50
S1130410243031050CF4A5CF80E060960FB6F89433
S1130420DEBF0FBECDBFDF91CF910895CF93DF9391
S1130430CDB7DEB7C154D1090FB6F894DEBF0FBEF5
S1130440CDBF80EF81B98FEF82B98AB1887F8AB935
S11304508BB187608BB90E94760180E191E00E94A4
S11304608E012FEF89E698E1215080409040E1F71A
S113047000C0000081E00E9452011A821982FE012C
S113048033968EE0DF011D928A95E9F7E12CF12C79
S1130490C12CD12C1FAEB12CA12C912C812C312C30
S11304A0212C512C612C0E949B01782E882309F465
S11304B09AC080ED870D8A3008F5E114F10441F00B
S11304C081E00E9452011982E12CF12CC12CD12C23
S11304D086010F5F1F4FE1E0F0E0EC0FFD1FEC0D14
S11304E0FD1D7082E1E0F0E0EC0FFD1FE00FF11F55
S11304F01082872D0E946401680175C0BEE27B12E0
S113050021C0E114F10441F081E00E9452011982FA
S1130510E12CF12CC12CD12C86010F5F1F4FE1E09F
S1130520F0E0EC0FFD1FEC0DFD1D8EE28083E1E099
S1130530F0E0EC0FFD1FE00FF11F10820E94640138
S1130540680151C023E4721212C081E00E9452017A
S11305501982E12CF12CC12CD12C1FAEB12CA12C71
S1130560912C812C312C212C512C612C3CC0E11478
S1130570F10449F4CE0101960E943508362E272E47
S1130580582E692E06C03B2C2A2C592C682CE12CA1
S1130590F12C81E00E9452016E0185E2C80ED11C4B
S11305A0860121E044E0632D722D852D962D0E9455
S11305B015081F927F92DF92CF9280E291E09F9381
S11305C08F93045111091F930F930E943908C80196
S11305D00E948E0119820FB6F894DEBF0FBECDBF04
S11305E07FAEC12CD12C489996C08FE39CE901972A
S11305F0F1F700C00000489BFECFCE0101960E9497
S113060035086B017C019FAD9B3269F4A70196010B
S1130610632D722D852D962D0E944104B62EA72E92
S1130620982E892E4DC0AFADAD3269F4A701960165
S1130630632D722D852D962D0E944004B62EA72E73
S1130640982E892E3DC0BFADBA3269F4A701960138
S1130650632D722D852D962D0E949905B62EA72EF9
S1130660982E892E2DC02FAD2F32B1F420E030E02A
S1130670A901C701B6010E94AD048823E9F0A701CE
S11306809601632D722D852D962D0E94B204B62EEF
S1130690A72E982E892E14C08FAD803789F4A70118
S11306A09601632D722D852D962D0E940606B62E79
S11306B0A72E982E892E04C0B12CA12C912C812C0C
S11306C07E0195E2E90EF11C870122E044E06B2DE6
S11306D07A2D892D982D0E941508FF92EF928AE2B7
S11306E091E09F938F93045111091F930F930E94DC
S11306F0390880EC0E945201C8010E948E011982BF
S11307000F900F900F900F900F900F90EE24E394A2
S1130710F12CC12CD12C499969C0AFE3BCE91197E4
S1130720F1F700C00000499BFECFEF2841F4CE0151
S113073001960E943508B62EA72E982E892E6B2D71
S11307407A2D892D982D0E945C06762E21967FAFF6
S1130750219722968FAF2297492E81E00E94520161
S11307606E01B5E3CB0ED11C860121E044E06B2D74
S11307707A2D892D982D0E9415087E0125E2E20E1E
S1130780F11C870122E044E0672D21967FAD21977B
S113079022968FAD2297942D0E941508FF92EF9216
S11307A0DF92CF9285E291E09F938F9304511109D8
S11307B01F930F930E943908C8010E948E01198269
S11307C00FB6F894DEBF0FBECDBF3B2C2A2C592C9C
S11307D0682CB72C2196AFAC219722969FAC229718
S11307E0842CEE24E394F12CC12CD12C4A995BCEB9
S11307F0AFE3BCE91197F1F700C000004A9BFECFBC
S1130800E114F10461F181E00E9452017E01B5E23C
S1130810EB0EF11C870121E044E06B2D7A2D892D2C
S1130820982D0E941508FF92EF928EE291E09F931B
S11308308F93045111091F930F930E943908C80123
S11308400E948E010F900F900F900F900F900F90B9
S11308503B2C2A2C592C682CE12CF12C0BC0CE01FA
S113086001960E943508362E272E582E692E8EE5C5
S11308700E9464011982C12CD12C20E72FAF13CE22
S11308805058BB27AA270E9458040C945F050E9465
S1130890510538F00E94580520F039F49F3F19F4AF
S11308A026F40C944E050EF4E095E7FB0C944805F1
S11308B0E92F0E94700558F3BA176207730784077B
S11308C0950720F079F4A6F50C9492050EF4E095C2
S11308D00B2EBA2FA02D0B01B90190010C01CA01F6
S11308E0A0011124FF27591B99F0593F50F4503EA1
S11308F068F11A16F040A22F232F342F4427585F93
S1130900F3CF469537952795A795F0405395C9F7AA
S11309107EF41F16BA0B620B730B840BBAF0915062
S1130920A1F0FF0FBB1F661F771F881FC2F70EC001
S1130930BA0F621F731F841F48F4879577956795D4
S1130940B795F7959E3F08F0B0CF9395880F08F0C0
S11309509927EE0F9795879508950E94240508F42A
S113096081E008950E94C6040C945F050E94580516
S113097058F00E94510540F029F45F3F29F00C948F
S1130980480551110C9493050C944E050E94700572
S113099068F39923B1F3552391F3951B550BBB27AA
S11309A0AA2762177307840738F09F5F5F4F220FEF
S11309B0331F441FAA1FA9F335D00E2E3AF0E0E8E6
S11309C032D091505040E695001CCAF72BD0FE2F30
S11309D029D0660F771F881FBB1F261737074807C4
S11309E0AB07B0E809F0BB0B802DBF01FF2793587C
S11309F05F4F3AF09E3F510578F00C9448050C94F3
S1130A0093055F3FE4F3983ED4F386957795679515
S1130A10B795F7959F5FC9F7880F911D96958795B0
S1130A2097F90895E1E0660F771F881FBB1F6217CF
S1130A3073078407BA0720F0621B730B840BBA0B8D
S1130A40EE1F88F7E0950895990F0008550FAA0B3B
S1130A50E0E8FEEF16161706E807F907C0F01216CD
S1130A601306E407F50798F0621B730B840B950BD0
S1130A7039F40A2661F0232B242B252B21F4089525
S1130A800A2609F4A140A6958FEF811D811D0895C2
S1130A9097F99F6780E870E060E008959FEF80EC2D
S1130AA0089500240A9416161706180609060895D0
S1130AB000240A9412161306140605060895092E36
S1130AC00394000C11F4882352F0BB0F40F4BF2BA5
S1130AD011F460FF04C06F5F7F4F8F4F9F4F0895E5
S1130AE057FD9058440F551F59F05F3F71F04795DB
S1130AF0880F97FB991F61F09F3F79F087950895C0
S1130B00121613061406551FF2CF4695F1DF08C0DE
S1130B10161617061806991FF1CF869571056105FB
S1130B2008940895E894BB2766277727CB0197F9A3
S1130B3008950E94AC050C945F050E94510538F09D
S1130B400E94580520F0952311F00C9448050C944C
S1130B504E0511240C9493050E94700570F3959F23
S1130B60C1F3950F50E0551F629FF001729FBB27A0
S1130B70F00DB11D639FAA27F00DB11DAA1F649F3C
S1130B806627B00DA11D661F829F2227B00DA11DEF
S1130B90621F739FB00DA11D621F839FA00D611D75
S1130BA0221F749F3327A00D611D231F849F600D96
S1130BB0211D822F762F6A2F11249F5750409AF0BF
S1130BC0F1F088234AF0EE0FFF1FBB1F661F771F4B
S1130BD0881F91505040A9F79E3F510580F00C9416
S1130BE048050C9493055F3FE4F3983ED4F386954F
S1130BF077956795B795F795E7959F5FC1F7FE2BB6
S1130C00880F911D9695879597F90895FA01EE0F2F
S1130C10FF1F309621053105A1F16115710561F4BD
S1130C208038BFE39B0749F168949038810561F0EF
S1130C308038BFEF9B0741F099234AF5FF3FE10558
S1130C403105210519F1E8940894E795D901AA23FF
S1130C5029F4AB2FBE2FF85FD0F310C0FF5F70F400
S1130C60A695E0F7F73950F019F0FF3A38F49F777A
S1130C709F930DD00F9007FC9058089546F00C9464
S1130C804E0560E070E080E89FE308954FE79F77AA
S1130C905F934F933F932F930E945C072F913F9153
S1130CA04F915F910E9499050C94A40619F416F4CF
S1130CB00C944E050C94D6060E947805B8F399233B
S1130CC0C9F3B6F39F57550B87FF0E94E40600242F
S1130CD0A0E640EA900180585695979528F4805CE8
S1130CE0660F771F881F20F026173707480730F450
S1130CF0621B730B840B202931294A2BA695179468
S1130D000794202531254A2758F7660F771F881F37
S1130D1020F026173707480730F4620B730B840B57
S1130D20200D311D411DA09581F7B901842F9158E3
S1130D30880F96958795089529F416F00C94480524
S1130D400C9492050C944E050E947805A8F39638ED
S1130D50A0F707F80F92E8942BE33AEA48EB5FE731
S1130D600E94AF050F920F920F924DB75EB70F928C
S1130D700E94A407ECE7F0E00E94EB064F915F911C
S1130D80EF91FF91E595EE1FFF1F49F0FE57E068D4
S1130D904427EE0F441FFA95E1F74195550B0E9445
S1130DA01E070F9007FE0C94120708959F3F31F021
S1130DB0915020F4879577956795B795880F911D85
S1130DC09695879597F9089591505040660F771F2F
S1130DD0881FD2F70895DF93CF931F930F93FF9249
S1130DE0EF92DF927B018C01689406C0DA2EEF014A
S1130DF00E94AC05FE01E894A59125913591459199
S1130E005591A6F3EF010E945804FE019701A80131
S1130E10DA9469F7DF90EF90FF900F911F91CF91D3
S1130E20DF9108959B01AC0160E070E080E89FE3EE
S1130E300C94B2040C9448050C94D6060E947805D0
S1130E40D8F39923C9F3940F511DA3F39150504043
S1130E5094F059F0882332F0660F771F881F915061
S1130E605040C1F79E3F51052CF7880F911D969570
S1130E70879597F908955F3FACF0983E9CF0BB27A7
S1130E80869577956795B79508F4B1609395C1F702
S1130E90BB0F58F711F460FFE8CF6F5F7F4F8F4FA0
S1130EA09F4FE3CF0C94930516F00C94D6060C9444
S1130EB04E0568940C9448050E947805A8F399237C
S1130EC0C1F3AEF3DF93CF931F930F93FF92C92F18
S1130ED0DD2788232AF02197660F771F881FDAF70A
S1130EE020E030E040E85FEB9FE3883920F0803E6B
S1130EF038F021968F770E944104E4EAF0E004C0C0
S1130F000E944104E1EDF0E00E94EB068B01BE017A
S1130F10EC01FB2E6F5771097595771F880B990BA0
S1130F200E94DA0728E132E741E35FE30E94AC055F
S1130F30AF2D9801AE01FF900F911F91CF91DF91DA
S1130F400E9458040C945F05FA01DC01AA0FBB1F30
S1130F509B01AC01BF5728F422273327442750783C
S1130F6020C0B75190F4AB2F0024469537952795B0
S1130F70011CA395D2F3002071F0220F331F441FEC
S1130F80B395DAF30ED00C94400461307105A0E8F7
S1130F908A07B94630F49B01AC0166277727882776
S1130FA09078309621F020833183428353830895CF
S1130FB0E89409C097FB3EF49095809570956195EF
S1130FC07F4F8F4F9F4F9923A9F0F92F96E9BB27A5
S1130FD09395F695879577956795B795F111F8CF21
S1130FE0FAF4BB0F11F460FF1BC06F5F7F4F8F4F8C
S1130FF09F4F16C0882311F096E911C0772321F082
S11310009EE8872F762F05C0662371F096E8862F19
S113101070E060E02AF09A95660F771F881FDAF770
S1131020880F9695879597F90895EF920F931F93DC
S1131030CF93DF93E80147FD02C034E001C034E1FF
S1131040042E000C550B57FF03C0519541955109CF
S1131050E32E022F242FAE010E943C0ACE01DF9121
S1131060CF911F910F91EF900895662777270C94E5
S1131070960BAEE0B0E0EFE3F8E00C94A90E0D8916
S11310801E8986E08C831A8309838FEF9FE79E83F2
S11310908D83AE01475E5F4F6F89788DCE010196D7
S11310A00E945B08EF81F885E00FF11F10822E96F5
S11310B0E4E00C94C50EABE0B0E0E1E6F8E00C949B
S11310C09B0E6C017B018A01FC01178216828381CD
S11310D081FFCCC1CE0101963C01F6019381F70159
S11310E093FD859193FF81917F01882309F4BAC10F
S11310F0853239F493FD859193FF81917F01853287
S113110029F4B60190E00E94F30DE7CF912C212C35
S1131110312CFFE1F315D8F08B3279F038F48032BA
S113112079F08332A1F4232D20611DC08D3261F04A
S1131130803369F4232D216016C0832D8260382EFC
S1131140E32DE4603E2E2AC0F32DF8601DC037FC69
S11311502DC020ED280F2A3040F08E32B9F436FC31
S113116081C1232D2064322E19C036FE06C08AE0C8
S1131170989E200D1124922E11C0EAE02E9E200D7F
S11311801124222EF32DF0623F2E08C08C3621F458
S1131190832D8068382E02C0883641F4F70193FD10
S11311A0859193FF81917F018111B3CF982F9F7D0A
S11311B09554933028F40C5F1F4F9FE399830DC01F
S11311C0833631F0833771F0833509F059C021C07B
S11311D0F801808189830E5F1F4F88248394912CAA
S11311E0530113C02801F2E04F0E511CF801A080F6
S11311F0B18036FE03C0692D70E002C06FEF7FEF4F
S1131200C5010E94E80D4C018201F32DFF773F2EAA
S113121016C0280122E0420E511CF801A080B180C2
S113122036FE03C0692D70E002C06FEF7FEFC50189
S11312300E94DD0D4C01F32DF0683F2E820133FC3A
S11312401BC0822D90E088169906B0F4B60180E2A6
S113125090E00E94F30D2A94F4CFF50137FC8591B8
S113126037FE81915F01B60190E00E94F30D2110D9
S11312702A9421E0821A91088114910471F7E8C03C
S1131280843611F0893641F5F80137FE07C06081D4
S11312907181828193810C5F1F4F08C060817181CD
S11312A0072E000C880B990B0E5F1F4FF32DFF7652
S11312B03F2E97FF09C090958095709561957F4F5B
S11312C08F4F9F4FF0683F2E2AE030E0A3010E9429
S11312D02F0E882E861845C0853731F4232D2F7E96
S11312E0B22E2AE030E025C0932D997FB92E8F3697
S11312F0C1F018F4883579F0B5C0803719F0883713
S113130021F0B0C0E92FE061BE2EB4FE0DC0FB2D6C
S1131310F460BF2E09C034FE0AC0292F2660B22E05
S113132006C028E030E005C020E130E002C020E142
S113133032E0F801B7FE07C0608171818281938138
S11313400C5F1F4F06C06081718180E090E00E5FEA
S11313501F4FA3010E942F0E882E8618FB2DFF77A6
S11313603F2E36FE0DC0232D2E7FA22E891458F455
S113137034FE0BC032FC09C0832D8E7EA82E05C01E
S1131380B82CA32C03C0B82C01C0B92CA4FE0FC0E8
S1131390FE01E80DF11D8081803321F49A2D997EA0
S11313A0A92E09C0A2FE06C0B394B39404C08A2D2A
S11313B0867809F0B394A3FC11C0A0FE06C0B21451
S11313C088F4280C922C9B180EC0B21460F4B60159
S11313D080E290E00E94F30DB394F7CFB21418F4B6
S11313E02B1802C0982C212CA4FE10C0B60180E357
S11313F090E00E94F30DA2FE17C0A1FC03C088E791
S113140090E002C088E590E0B6010CC08A2D867891
S113141059F0A1FE02C08BE201C080E2A7FC8DE27C
S1131420B60190E00E94F30D891438F4B60180E30C
S113143090E00E94F30D9A94F7CF8A94F301E80D9B
S1131440F11D8081B60190E00E94F30D8110F5CF6B
S1131450222009F442CEB60180E290E00E94F30D0E
S11314602A94F6CFF6018681978102C08FEF9FEF11
S11314702B96E2E10C94B70EA9E0B0E0E2E4FAE0C6
S11314800C94A10E6A01122FB02E2BE3201720F02A
S1131490FF24F394F00E02C02CE3F22E0F2D27E06C
S11314A0AE014F5F5F4F0E94E40CBC014981842F61
S11314B08970813031F0E1FC06C0E0FE06C090E2A4
S11314C005C09DE203C09BE201C090E05E2D507117
S11314D043FF3CC0911102C083E001C084E0811746
S11314E018F4212F281B01C020E051110BC0F60174
S11314F0822F30E2882319F031938150FBCFC20E42
S1131500D11C20E0992329F0D6019C93F601319651
S11315106F01C6010396E2FE0AC03EE4D6013C9385
S113152041E411964C93119712963C9306C03EE603
S1131530F601308341E641833283FC01322F40E2DD
S1131540332309F442C041933150FACF42FF44C0DF
S1131550911102C083E001C084E0811718F4212FA7
S1131560281B01C020E051110BC0F601822F30E28C
S1131570882319F031938150FBCFC20ED11C20E097
S1131580992329F0D6019C93F60131966F01C60187
S11315900396E2FE0BC039E4D6013C933EE4119677
S11315A03C93119736E412963C9307C039E6F60152
S11315B030833EE6318336E63283FC01322F40E24B
S11315C0332319F041933150FBCFFC01E20FF11D9D
S11315D010828EEF9FEFA6C021E030E0911102C08F
S11315E020E030E0161617061CF4FB01319602C009
S11315F0E1E0F0E02E0F3F1FBB2021F0EB2DF0E0E7
S1131600319602C0E0E0F0E02E0F3F1FE12FF0E042
S11316102E173F071CF4121B212F01C020E08E2D32
S1131620887159F4F601822F30E2882319F031933E
S11316308150FBCFC20ED11C20E0992329F0D601A2
S11316409C93F60131966F0151110BC0F601822F64
S113165090E3882319F091938150FBCFC20ED11CE3
S113166020E00F2D060F9A81342F307144FF03C000
S1131670913309F40150101624F4093018F008E0ED
S113168001C001E0AB0177FF02C040E050E0FB0184
S1131690E41BF50BA1E0B0E0AC0FBD1FEA0FFB1F8C
S11316A08EE2A82E4B01801A91080B2D10E01195A3
S11316B0019511094F3FBFEF5B0721F4D601AC92AE
S11316C011966D01641775072CF08416950614F4B1
S11316D0818101C080E3415051093196D6011196B0
S11316E07D014017510724F0D6018C936701E2CFA6
S11316F06417750739F4963320F4953319F43111CE
S113170001C081E3F6018083F701822F90E28823F0
S113171019F091938150FBCFF701E20FF11D108274
S113172080E090E02996ECE00C94BD0EA0E0B0E0DF
S1131730ECE9FBE00C94A10EEC016B016115710561
S113174019F0FB01918380837E01FFEFEF1AFF0AFA
S11317500881802F90E00E94BC0D892B11F0E701D5
S1131760F3CF0D3239F47E0182E0E80EF11C0981D9
S113177011E008C00B3229F47E0192E0E90EF11C5D
S1131780098110E0E701219743E050E066E071E051
S1131790CE010E94C50D892BC1F4239645E050E08B
S11317A061E071E0CE010E94C50D892B09F42596F4
S11317B0C114D10419F0F601D183C0831111F6C00C
S11317C060E070E080E89FE7FAC043E050E06EEF2D
S11317D070E0CE010E94C50D892B59F4C114D104C7
S11317E009F4E9C0F2E0EF0EF11CF601F182E082A7
S11317F0E2C020E030E0A901C0E0D0E0F70180EDD4
S1131800A82EA00E89E08A1530F1912F9260B92E8E
S1131810812F887012FF04C0811124C0219622C038
S113182081112197A5E0B0E00E94900EDC01CB016C
S1131830880F991FAA1FBB1F9C01AD012A0D311DE2
S1131840411D511D283989E93807480789E158079E
S113185048F0166006C09EEFA9120AC013FD40C0EE
S11318601860B12E8FEFE81AF80A00811B2DC6CF3D
S1131870802F8F7D8534A1F580818D3211F4106124
S113188006C08B3221F0319661E070E004C08181A2
S1131890329662E070E080538A3018F0E61BF70B52
S11318A01FC060E070E060389CE079075CF4DB0105
S11318B0AA0FBB1FAA0FBB1F6A0F7B1F660F771FE0
S11318C0680F711D3196DF0111978C9180538A3016
S11318D050F314FF03C0719561957109C60FD71FAA
S11318E011FF08C0C114D10429F0CF010197F601FA
S11318F091838083CA01B9010E94D807212F2370E4
S1131900233019F04B015C0106C04B015C01B7FAAE
S1131910B094B7F8B09420E030E0A901C501B40157
S11319200E94AD04882309F43EC0D7FF06C0D195B8
S1131930C195D1090DE111E002C005E311E0680190
S1131940F8E1CF1AD10890E2E92EF12CCE15DF058B
S113195074F0F8012591359145915491C501B40174
S11319600E9499054B015C01CE19DF09EFCF0450A9
S11319701109F594E7940C151D0541F78A2D880F7C
S11319808B2D881F8F3F49F020E030E0A901C5016D
S1131990B4010E94AD04811106C082E290E09093EC
S11319A0330180933201C501B40109C060E070E0E5
S11319B080E89FEF04C060E070E080EC9FE7CDB763
S11319C0DEB7ECE00C94BD0E283008F027E0332796
S11319D0DA01990F311D87FD91600096610571054B
S11319E039F432602E5F3D9330E32A95E1F7089590
S11319F09F3F30F080387105610509F03C5F3C5F22
S1131A003D93913008F08068911DDF93CF931F932D
S1131A100F93FF92EF92192F987F9695E92F969541
S1131A209695E90FFF27ED56FE4F99273327EE24AD
S1131A30FF24A701E70105900894079428F4360FC2
S1131A40E71EF81E491F511D660F771F881F991F37
S1131A500694A1F70590079428F4E70EF81E491F91
S1131A60561FC11D770F881F991F661F0694A1F783
S1131A700590079428F4F80E491F561FC71FD11D5F
S1131A80880F991F661F771F0694A1F70590079486
S1131A9020F4490F561FC71FD81F990F661F771FC1
S1131AA0881F0694A9F784911095177041F0D69574
S1131AB0C79557954795F794E7941A95C1F7E9E3C5
S1131AC0F1E0689415901591359165919591059083
S1131AD07FE27395E118F10A430B560BC90BD00949
S1131AE0C0F7E10CF11E431F561FC91FD01D7EF421
S1131AF0703311F48A95E6CFE894015030F0080F62
S1131B000AF40027021708F4202F2395022F7A33B2
S1131B1028F079E37D932A95E9F710C07D932A95FF
S1131B2089F6069497956795379517951794E11854
S1131B30F10A430B560BC90BD00998F023957E91FB
S1131B4073957A3308F070E37C932013B8F77E9191
S1131B5070617D9330F0839571E37D9370E32A95F2
S1131B60E1F71124EF90FF900F911F91CF91DF9136
S1131B70992787FD9095089591110C948D0E8032CC
S1131B8019F089508550C8F70895FB01DC014150D4
S1131B90504088F08D9181341CF08B350CF4805EBC
S1131BA0659161341CF06B350CF4605E861B611129
S1131BB071F3990B0895881BFCCFFC0105906150CB
S1131BC070400110D8F7809590958E0F9F1F08954F
S1131BD0FC016150704001900110D8F780959095F8
S1131BE08E0F9F1F08950F931F93CF93DF93FB01D5
S1131BF0238121FD03C08FEF9FEF2CC022FF16C06D
S1131C0046815781248135814217530744F4A081CA
S1131C10B1819D012F5F3F4F318320838C932681B7
S1131C2037812F5F3F4F3783268314C08B01EC012C
S1131C30FB010084F185E02D0995892BE1F6D8019B
S1131C4016968D919C911797019617969C938E9357
S1131C501697CE01DF91CF911F910F910895FA014C
S1131C60AA27283051F1203181F1E8946F936E7FD7
S1131C706E5F7F4F8F4F9F4FAF4FB1E03ED0B4E0C8
S1131C803CD0670F781F891F9A1FA11D680F791F09
S1131C908A1F911DA11D6A0F711D811D911DA11D1A
S1131CA020D009F468943F912AE0269F112430192A
S1131CB0305D3193DEF6CF010895462F4770405DC5
S1131CC04193B3E00FD0C9F7F6CF462F4F70405D74
S1131CD04A3318F0495D31FD4052419302D0A9F7CF
S1131CE0EACFB4E0A6959795879577956795BA95C9
S1131CF0C9F700976105710508959B01AC010A2E8F
S1131D0006945795479537952795BA95C9F7620F65
S1131D10731F841F951FA01D089599278827089570
S1131D200E94D20EA59F900DB49F900DA49F800D8C
S1131D30911D112408952F923F924F925F926F92BA
S1131D407F928F929F92AF92BF92CF92DF92EF9247
S1131D50FF920F931F93CF93DF93CDB7DEB7CA1BC8
S1131D60DB0B0FB6F894DEBF0FBECDBF09942A88F3
S1131D70398848885F846E847D848C849B84AA849B
S1131D80B984C884DF80EE80FD800C811B81AA8128
S1131D90B981CE0FD11D0FB6F894DEBF0FBECDBFF3
S1131DA0ED010895A29FB001B39FC001A39F700DE0
S1131DB0811D1124911DB29F700D811D1124911D4F
S1091DC00895F894FFCF22
S1131DC6432F2A2D38392E2B3435363730313233DA
S1131DD64469656E205475203130204469656D0070
S1131DE6257325630076282573293D2573002573FD
S1051DF65E0089
S9030000FC
